{
  "contractName": "ICO",
  "abi": [
    {
      "constant": true,
      "inputs": [],
      "name": "name",
      "outputs": [
        {
          "name": "",
          "type": "string"
        }
      ],
      "payable": false,
      "stateMutability": "view",
      "type": "function",
      "signature": "0x06fdde03"
    },
    {
      "constant": true,
      "inputs": [
        {
          "name": "",
          "type": "address"
        }
      ],
      "name": "balances",
      "outputs": [
        {
          "name": "",
          "type": "uint256"
        }
      ],
      "payable": false,
      "stateMutability": "view",
      "type": "function",
      "signature": "0x27e235e3"
    },
    {
      "constant": true,
      "inputs": [],
      "name": "decimals",
      "outputs": [
        {
          "name": "",
          "type": "uint256"
        }
      ],
      "payable": false,
      "stateMutability": "view",
      "type": "function",
      "signature": "0x313ce567"
    },
    {
      "constant": true,
      "inputs": [],
      "name": "bonusEnds",
      "outputs": [
        {
          "name": "",
          "type": "uint256"
        }
      ],
      "payable": false,
      "stateMutability": "view",
      "type": "function",
      "signature": "0x40c65003"
    },
    {
      "constant": true,
      "inputs": [],
      "name": "allContributors",
      "outputs": [
        {
          "name": "",
          "type": "uint256"
        }
      ],
      "payable": false,
      "stateMutability": "view",
      "type": "function",
      "signature": "0x4c1ac788"
    },
    {
      "constant": true,
      "inputs": [],
      "name": "allTokens",
      "outputs": [
        {
          "name": "",
          "type": "uint256"
        }
      ],
      "payable": false,
      "stateMutability": "view",
      "type": "function",
      "signature": "0x6ff97f1d"
    },
    {
      "constant": true,
      "inputs": [],
      "name": "symbol",
      "outputs": [
        {
          "name": "",
          "type": "string"
        }
      ],
      "payable": false,
      "stateMutability": "view",
      "type": "function",
      "signature": "0x95d89b41"
    },
    {
      "constant": true,
      "inputs": [],
      "name": "icoEnds",
      "outputs": [
        {
          "name": "",
          "type": "uint256"
        }
      ],
      "payable": false,
      "stateMutability": "view",
      "type": "function",
      "signature": "0x9a8ca12c"
    },
    {
      "constant": true,
      "inputs": [],
      "name": "icoStarts",
      "outputs": [
        {
          "name": "",
          "type": "uint256"
        }
      ],
      "payable": false,
      "stateMutability": "view",
      "type": "function",
      "signature": "0x9c3e0f3f"
    },
    {
      "inputs": [],
      "payable": false,
      "stateMutability": "nonpayable",
      "type": "constructor",
      "signature": "constructor"
    },
    {
      "anonymous": false,
      "inputs": [
        {
          "indexed": true,
          "name": "from",
          "type": "address"
        },
        {
          "indexed": true,
          "name": "to",
          "type": "address"
        },
        {
          "indexed": false,
          "name": "tokens",
          "type": "uint256"
        }
      ],
      "name": "Transfer",
      "type": "event",
      "signature": "0xddf252ad1be2c89b69c2b068fc378daa952ba7f163c4a11628f55a4df523b3ef"
    },
    {
      "anonymous": false,
      "inputs": [
        {
          "indexed": true,
          "name": "tokenOwner",
          "type": "address"
        },
        {
          "indexed": true,
          "name": "spender",
          "type": "address"
        },
        {
          "indexed": false,
          "name": "tokens",
          "type": "uint256"
        }
      ],
      "name": "Approval",
      "type": "event",
      "signature": "0x8c5be1e5ebec7d5bd14f71427d1e84f3dd0314c0f7b2291e5b200ac8c7c3b925"
    },
    {
      "constant": false,
      "inputs": [],
      "name": "buyTokens",
      "outputs": [],
      "payable": true,
      "stateMutability": "payable",
      "type": "function",
      "signature": "0xd0febe4c"
    },
    {
      "constant": true,
      "inputs": [],
      "name": "totalSupply",
      "outputs": [
        {
          "name": "",
          "type": "uint256"
        }
      ],
      "payable": false,
      "stateMutability": "view",
      "type": "function",
      "signature": "0x18160ddd"
    },
    {
      "constant": true,
      "inputs": [],
      "name": "myBalance",
      "outputs": [
        {
          "name": "",
          "type": "uint256"
        }
      ],
      "payable": false,
      "stateMutability": "view",
      "type": "function",
      "signature": "0xc9116b69"
    },
    {
      "constant": true,
      "inputs": [],
      "name": "myAddress",
      "outputs": [
        {
          "name": "",
          "type": "address"
        }
      ],
      "payable": false,
      "stateMutability": "view",
      "type": "function",
      "signature": "0x26b85ee1"
    },
    {
      "constant": false,
      "inputs": [],
      "name": "endSale",
      "outputs": [],
      "payable": false,
      "stateMutability": "nonpayable",
      "type": "function",
      "signature": "0x380d831b"
    },
    {
      "constant": true,
      "inputs": [
        {
          "name": "tokenOwner",
          "type": "address"
        }
      ],
      "name": "balanceOf",
      "outputs": [
        {
          "name": "balance",
          "type": "uint256"
        }
      ],
      "payable": false,
      "stateMutability": "view",
      "type": "function",
      "signature": "0x70a08231"
    },
    {
      "constant": false,
      "inputs": [
        {
          "name": "to",
          "type": "address"
        },
        {
          "name": "tokens",
          "type": "uint256"
        }
      ],
      "name": "transfer",
      "outputs": [
        {
          "name": "success",
          "type": "bool"
        }
      ],
      "payable": false,
      "stateMutability": "nonpayable",
      "type": "function",
      "signature": "0xa9059cbb"
    },
    {
      "constant": false,
      "inputs": [
        {
          "name": "spender",
          "type": "address"
        },
        {
          "name": "tokens",
          "type": "uint256"
        }
      ],
      "name": "approve",
      "outputs": [
        {
          "name": "success",
          "type": "bool"
        }
      ],
      "payable": false,
      "stateMutability": "nonpayable",
      "type": "function",
      "signature": "0x095ea7b3"
    },
    {
      "constant": false,
      "inputs": [
        {
          "name": "from",
          "type": "address"
        },
        {
          "name": "to",
          "type": "address"
        },
        {
          "name": "tokens",
          "type": "uint256"
        }
      ],
      "name": "transferFrom",
      "outputs": [
        {
          "name": "success",
          "type": "bool"
        }
      ],
      "payable": false,
      "stateMutability": "nonpayable",
      "type": "function",
      "signature": "0x23b872dd"
    },
    {
      "constant": true,
      "inputs": [
        {
          "name": "tokenOwner",
          "type": "address"
        },
        {
          "name": "spender",
          "type": "address"
        }
      ],
      "name": "allowance",
      "outputs": [
        {
          "name": "remaining",
          "type": "uint256"
        }
      ],
      "payable": false,
      "stateMutability": "view",
      "type": "function",
      "signature": "0xdd62ed3e"
    }
  ],
  "bytecode": "0x60806040523480156200001157600080fd5b506040805190810160405280600781526020017f426967436f696e00000000000000000000000000000000000000000000000000815250600090805190602001906200005f92919062000188565b506040805190810160405280600681526020017f4247434f494e000000000000000000000000000000000000000000000000000081525060019080519060200190620000ad92919062000188565b50601260028190555062093a8042016003819055506212750042016004819055506203f480420160058190555033600860006101000a81548173ffffffffffffffffffffffffffffffffffffffff021916908373ffffffffffffffffffffffffffffffffffffffff1602179055506000600681905550683635c9adc5dea00000600781905550600754600960003373ffffffffffffffffffffffffffffffffffffffff1673ffffffffffffffffffffffffffffffffffffffff1681526020019081526020016000206000828254019250508190555062000237565b828054600181600116156101000203166002900490600052602060002090601f016020900481019282601f10620001cb57805160ff1916838001178555620001fc565b82800160010185558215620001fc579182015b82811115620001fb578251825591602001919060010190620001de565b5b5090506200020b91906200020f565b5090565b6200023491905b808211156200023057600081600090555060010162000216565b5090565b90565b61119580620002476000396000f3fe608060405260043610610107576000357c0100000000000000000000000000000000000000000000000000000000900463ffffffff16806306fdde031461010c578063095ea7b31461019c57806318160ddd1461020f57806323b872dd1461023a57806326b85ee1146102cd57806327e235e314610324578063313ce56714610389578063380d831b146103b457806340c65003146103cb5780634c1ac788146103f65780636ff97f1d1461042157806370a082311461044c57806395d89b41146104b15780639a8ca12c146105415780639c3e0f3f1461056c578063a9059cbb14610597578063c9116b691461060a578063d0febe4c14610635578063dd62ed3e1461063f575b600080fd5b34801561011857600080fd5b506101216106c4565b6040518080602001828103825283818151815260200191508051906020019080838360005b83811015610161578082015181840152602081019050610146565b50505050905090810190601f16801561018e5780820380516001836020036101000a031916815260200191505b509250505060405180910390f35b3480156101a857600080fd5b506101f5600480360360408110156101bf57600080fd5b81019080803573ffffffffffffffffffffffffffffffffffffffff16906020019092919080359060200190929190505050610762565b604051808215151515815260200191505060405180910390f35b34801561021b57600080fd5b50610224610854565b6040518082815260200191505060405180910390f35b34801561024657600080fd5b506102b36004803603606081101561025d57600080fd5b81019080803573ffffffffffffffffffffffffffffffffffffffff169060200190929190803573ffffffffffffffffffffffffffffffffffffffff1690602001909291908035906020019092919050505061085e565b604051808215151515815260200191505060405180910390f35b3480156102d957600080fd5b506102e2610b09565b604051808273ffffffffffffffffffffffffffffffffffffffff1673ffffffffffffffffffffffffffffffffffffffff16815260200191505060405180910390f35b34801561033057600080fd5b506103736004803603602081101561034757600080fd5b81019080803573ffffffffffffffffffffffffffffffffffffffff169060200190929190505050610b16565b6040518082815260200191505060405180910390f35b34801561039557600080fd5b5061039e610b2e565b6040518082815260200191505060405180910390f35b3480156103c057600080fd5b506103c9610b34565b005b3480156103d757600080fd5b506103e0610c12565b6040518082815260200191505060405180910390f35b34801561040257600080fd5b5061040b610c18565b6040518082815260200191505060405180910390f35b34801561042d57600080fd5b50610436610c1e565b6040518082815260200191505060405180910390f35b34801561045857600080fd5b5061049b6004803603602081101561046f57600080fd5b81019080803573ffffffffffffffffffffffffffffffffffffffff169060200190929190505050610c24565b6040518082815260200191505060405180910390f35b3480156104bd57600080fd5b506104c6610c6d565b6040518080602001828103825283818151815260200191508051906020019080838360005b838110156105065780820151818401526020810190506104eb565b50505050905090810190601f1680156105335780820380516001836020036101000a031916815260200191505b509250505060405180910390f35b34801561054d57600080fd5b50610556610d0b565b6040518082815260200191505060405180910390f35b34801561057857600080fd5b50610581610d11565b6040518082815260200191505060405180910390f35b3480156105a357600080fd5b506105f0600480360360408110156105ba57600080fd5b81019080803573ffffffffffffffffffffffffffffffffffffffff16906020019092919080359060200190929190505050610d17565b604051808215151515815260200191505060405180910390f35b34801561061657600080fd5b5061061f610eb2565b6040518082815260200191505060405180910390f35b61063d610ef9565b005b34801561064b57600080fd5b506106ae6004803603604081101561066257600080fd5b81019080803573ffffffffffffffffffffffffffffffffffffffff169060200190929190803573ffffffffffffffffffffffffffffffffffffffff169060200190929190505050611079565b6040518082815260200191505060405180910390f35b60008054600181600116156101000203166002900480601f01602080910402602001604051908101604052809291908181526020018280546001816001161561010002031660029004801561075a5780601f1061072f5761010080835404028352916020019161075a565b820191906000526020600020905b81548152906001019060200180831161073d57829003601f168201915b505050505081565b600081600a60003373ffffffffffffffffffffffffffffffffffffffff1673ffffffffffffffffffffffffffffffffffffffff16815260200190815260200160002060008573ffffffffffffffffffffffffffffffffffffffff1673ffffffffffffffffffffffffffffffffffffffff168152602001908152602001600020819055508273ffffffffffffffffffffffffffffffffffffffff163373ffffffffffffffffffffffffffffffffffffffff167f8c5be1e5ebec7d5bd14f71427d1e84f3dd0314c0f7b2291e5b200ac8c7c3b925846040518082815260200191505060405180910390a36001905092915050565b6000600754905090565b60006108b282600960008773ffffffffffffffffffffffffffffffffffffffff1673ffffffffffffffffffffffffffffffffffffffff1681526020019081526020016000205461110090919063ffffffff16565b600960008673ffffffffffffffffffffffffffffffffffffffff1673ffffffffffffffffffffffffffffffffffffffff1681526020019081526020016000208190555061098482600a60008773ffffffffffffffffffffffffffffffffffffffff1673ffffffffffffffffffffffffffffffffffffffff16815260200190815260200160002060003373ffffffffffffffffffffffffffffffffffffffff1673ffffffffffffffffffffffffffffffffffffffff1681526020019081526020016000205461110090919063ffffffff16565b600a60008673ffffffffffffffffffffffffffffffffffffffff1673ffffffffffffffffffffffffffffffffffffffff16815260200190815260200160002060003373ffffffffffffffffffffffffffffffffffffffff1673ffffffffffffffffffffffffffffffffffffffff16815260200190815260200160002081905550610a5682600960008673ffffffffffffffffffffffffffffffffffffffff1673ffffffffffffffffffffffffffffffffffffffff1681526020019081526020016000205461111c90919063ffffffff16565b600960008573ffffffffffffffffffffffffffffffffffffffff1673ffffffffffffffffffffffffffffffffffffffff168152602001908152602001600020819055508273ffffffffffffffffffffffffffffffffffffffff168473ffffffffffffffffffffffffffffffffffffffff167fddf252ad1be2c89b69c2b068fc378daa952ba7f163c4a11628f55a4df523b3ef846040518082815260200191505060405180910390a3600190509392505050565b6000803390508091505090565b60096020528060005260406000206000915090505481565b60025481565b600860009054906101000a900473ffffffffffffffffffffffffffffffffffffffff1673ffffffffffffffffffffffffffffffffffffffff163373ffffffffffffffffffffffffffffffffffffffff16141515610b9057600080fd5b600860009054906101000a900473ffffffffffffffffffffffffffffffffffffffff1673ffffffffffffffffffffffffffffffffffffffff166108fc3073ffffffffffffffffffffffffffffffffffffffff16319081150290604051600060405180830381858888f19350505050158015610c0f573d6000803e3d6000fd5b50565b60055481565b60065481565b60075481565b6000600960008373ffffffffffffffffffffffffffffffffffffffff1673ffffffffffffffffffffffffffffffffffffffff168152602001908152602001600020549050919050565b60018054600181600116156101000203166002900480601f016020809104026020016040519081016040528092919081815260200182805460018160011615610100020316600290048015610d035780601f10610cd857610100808354040283529160200191610d03565b820191906000526020600020905b815481529060010190602001808311610ce657829003601f168201915b505050505081565b60045481565b60035481565b6000610d6b82600960003373ffffffffffffffffffffffffffffffffffffffff1673ffffffffffffffffffffffffffffffffffffffff1681526020019081526020016000205461110090919063ffffffff16565b600960003373ffffffffffffffffffffffffffffffffffffffff1673ffffffffffffffffffffffffffffffffffffffff16815260200190815260200160002081905550610e0082600960008673ffffffffffffffffffffffffffffffffffffffff1673ffffffffffffffffffffffffffffffffffffffff1681526020019081526020016000205461111c90919063ffffffff16565b600960008573ffffffffffffffffffffffffffffffffffffffff1673ffffffffffffffffffffffffffffffffffffffff168152602001908152602001600020819055508273ffffffffffffffffffffffffffffffffffffffff163373ffffffffffffffffffffffffffffffffffffffff167fddf252ad1be2c89b69c2b068fc378daa952ba7f163c4a11628f55a4df523b3ef846040518082815260200191505060405180910390a36001905092915050565b6000600960003373ffffffffffffffffffffffffffffffffffffffff1673ffffffffffffffffffffffffffffffffffffffff16815260200190815260200160002054905090565b600060055442111515610f2157610f1a607d3461113890919063ffffffff16565b9050610f38565b610f3560643461113890919063ffffffff16565b90505b610f4c60643461113890919063ffffffff16565b9050610fa081600960003373ffffffffffffffffffffffffffffffffffffffff1673ffffffffffffffffffffffffffffffffffffffff1681526020019081526020016000205461111c90919063ffffffff16565b600960003373ffffffffffffffffffffffffffffffffffffffff1673ffffffffffffffffffffffffffffffffffffffff16815260200190815260200160002081905550610ff88160075461111c90919063ffffffff16565b6007819055503373ffffffffffffffffffffffffffffffffffffffff16600073ffffffffffffffffffffffffffffffffffffffff167fddf252ad1be2c89b69c2b068fc378daa952ba7f163c4a11628f55a4df523b3ef836040518082815260200191505060405180910390a360066000815480929190600101919050555050565b6000600a60008473ffffffffffffffffffffffffffffffffffffffff1673ffffffffffffffffffffffffffffffffffffffff16815260200190815260200160002060008373ffffffffffffffffffffffffffffffffffffffff1673ffffffffffffffffffffffffffffffffffffffff16815260200190815260200160002054905092915050565b600082821115151561111157600080fd5b818303905092915050565b6000818301905082811015151561113257600080fd5b92915050565b600081830290506000831480611158575081838281151561115557fe5b04145b151561116357600080fd5b9291505056fea165627a7a72305820cc9ec6a74885bedb21d5870ae5758d6e00a64ba262c124a88ae701d5afe821a40029",
  "source": "pragma solidity >=0.4.21 <0.6.0;\r\n\r\n//pragma solidity ^0.4.24;\r\n\r\ncontract ERC20Interface {\r\n    function totalSupply() public view returns (uint);\r\n    function balanceOf(address tokenOwner) public view returns (uint balance);\r\n    function allowance(address tokenOwner, address spender) public view returns (uint remaining);\r\n    function transfer(address to, uint tokens) public returns (bool success);\r\n    function approve(address spender, uint tokens) public returns (bool success);\r\n    function transferFrom(address from, address to, uint tokens) public returns (bool success);\r\n\r\n    event Transfer(address indexed from, address indexed to, uint tokens);\r\n    event Approval(address indexed tokenOwner, address indexed spender, uint tokens);\r\n}\r\n\r\nlibrary SafeMath {\r\n    function add(uint a, uint b) internal pure returns (uint c) {\r\n        c = a + b;\r\n        require(c >= a);\r\n    }\r\n    function sub(uint a, uint b) internal pure returns (uint c) {\r\n        require(b <= a);\r\n        c = a - b;\r\n    }\r\n    function mul(uint a, uint b) internal pure returns (uint c) {\r\n        c = a * b;\r\n        require(a == 0 || c / a == b);\r\n    }\r\n    function div(uint a, uint b) internal pure returns (uint c) {\r\n        require(b > 0);\r\n        c = a / b;\r\n    }\r\n}\r\n\r\ncontract ICO is ERC20Interface{\r\n    using SafeMath for uint;\r\n    \r\n    string public name;\r\n    string public symbol;\r\n    uint public decimals;\r\n    uint public icoStarts;\r\n    uint public icoEnds;\r\n    uint public bonusEnds;\r\n    uint public allContributors;\r\n    uint public allTokens;\r\n    address payable admin;\r\n    mapping(address => uint) public balances;\r\n\r\n    mapping(address => mapping(address => uint)) allowed;\r\n    \r\n    constructor() public {\r\n        name = \"BigCoin\";\r\n        symbol = \"BGCOIN\";\r\n        decimals = 18;\r\n        icoStarts = now + 1 weeks;\r\n        icoEnds = now + 2 weeks;\r\n        bonusEnds = now + 3 days;\r\n        admin = msg.sender;\r\n        allContributors = 0;\r\n        allTokens = 10000000000000000000 * 100;\r\n        balances[msg.sender] += allTokens;\r\n        \r\n        \r\n    }\r\n    \r\n    function buyTokens() public payable {\r\n        uint tokens;\r\n        if(now <= bonusEnds){\r\n            tokens = msg.value.mul(125);\r\n        }else{\r\n            tokens = msg.value.mul(100);\r\n        }\r\n        tokens = msg.value.mul(100);\r\n        balances[msg.sender] = balances[msg.sender].add(tokens);\r\n        allTokens = allTokens.add(tokens);\r\n        emit Transfer(address(0), msg.sender, tokens);\r\n        allContributors++;\r\n    }\r\n    \r\n    function totalSupply() public view returns(uint){\r\n        return allTokens;\r\n    }\r\n    function myBalance() public view returns(uint) {\r\n        return(balances[msg.sender]);\r\n    }\r\n    \r\n    function myAddress() public view returns(address){\r\n        address myAddr;\r\n        myAddr = msg.sender;\r\n        return myAddr;\r\n    }\r\n    \r\n    function endSale() public {\r\n        require(msg.sender == admin);\r\n        admin.transfer(address(this).balance);\r\n    }\r\n    \r\n\r\n    function balanceOf(address tokenOwner) public view returns (uint balance) {\r\n        return balances[tokenOwner];\r\n    }\r\n\r\n    function transfer(address to, uint tokens) public returns (bool success) {\r\n        balances[msg.sender] = balances[msg.sender].sub(tokens);\r\n        balances[to] = balances[to].add(tokens);\r\n        emit Transfer(msg.sender, to, tokens);\r\n        return true;\r\n    }\r\n\r\n    function approve(address spender, uint tokens) public returns (bool success) {\r\n        allowed[msg.sender][spender] = tokens;\r\n        emit Approval(msg.sender, spender, tokens);\r\n        return true;\r\n    }\r\n\r\n    function transferFrom(address from, address to, uint tokens) public returns (bool success) {\r\n        balances[from] = balances[from].sub(tokens);\r\n        allowed[from][msg.sender] = allowed[from][msg.sender].sub(tokens);\r\n        balances[to] = balances[to].add(tokens);\r\n        emit Transfer(from, to, tokens);\r\n        return true;\r\n    }\r\n\r\n    function allowance(address tokenOwner, address spender) public view returns (uint remaining) {\r\n        return allowed[tokenOwner][spender];\r\n    }\r\n\r\n}",
  "sourcePath": "C:/Users/James/Desktop/NODESTUFF/ICO-Contract/contracts/ico.sol",
  "compiler": {
    "name": "solc",
    "version": "0.5.0+commit.1d4f565a.Emscripten.clang"
  },
  "schemaVersion": "3.0.2",
  "updatedAt": "2019-06-11T15:50:24.367Z",
  "devdoc": {
    "methods": {}
  },
  "userdoc": {
    "methods": {}
  }
}